{
  "_format": "hh-sol-artifact-1",
  "contractName": "Factory",
  "sourceName": "contracts/Factory.sol",
  "abi": [
    {
      "inputs": [
        {
          "internalType": "address",
          "name": "_token0",
          "type": "address"
        },
        {
          "internalType": "address",
          "name": "_token1",
          "type": "address"
        }
      ],
      "name": "createPool",
      "outputs": [],
      "stateMutability": "nonpayable",
      "type": "function"
    },
    {
      "inputs": [],
      "name": "getPools",
      "outputs": [
        {
          "internalType": "address[]",
          "name": "",
          "type": "address[]"
        }
      ],
      "stateMutability": "view",
      "type": "function"
    },
    {
      "inputs": [
        {
          "internalType": "uint256",
          "name": "",
          "type": "uint256"
        }
      ],
      "name": "pools",
      "outputs": [
        {
          "internalType": "address",
          "name": "",
          "type": "address"
        }
      ],
      "stateMutability": "view",
      "type": "function"
    },
    {
      "inputs": [
        {
          "internalType": "address",
          "name": "",
          "type": "address"
        },
        {
          "internalType": "address",
          "name": "",
          "type": "address"
        }
      ],
      "name": "poolsMap",
      "outputs": [
        {
          "internalType": "address",
          "name": "",
          "type": "address"
        }
      ],
      "stateMutability": "view",
      "type": "function"
    }
  ],
  "bytecode": "0x608060405234801561001057600080fd5b5061100c806100206000396000f3fe608060405234801561001057600080fd5b506004361061004c5760003560e01c8063177e5dc714610051578063673a2a1f14610081578063ac4afa381461009f578063e3433615146100cf575b600080fd5b61006b60048036038101906100669190610692565b6100eb565b60405161007891906106e1565b60405180910390f35b61008961012d565b60405161009691906107ba565b60405180910390f35b6100b960048036038101906100b49190610812565b6101bb565b6040516100c691906106e1565b60405180910390f35b6100e960048036038101906100e49190610692565b6101fa565b005b60016020528160005260406000206020528060005260406000206000915091509054906101000a900473ffffffffffffffffffffffffffffffffffffffff1681565b606060008054806020026020016040519081016040528092919081815260200182805480156101b157602002820191906000526020600020905b8160009054906101000a900473ffffffffffffffffffffffffffffffffffffffff1673ffffffffffffffffffffffffffffffffffffffff1681526020019060010190808311610167575b5050505050905090565b600081815481106101cb57600080fd5b906000526020600020016000915054906101000a900473ffffffffffffffffffffffffffffffffffffffff1681565b600073ffffffffffffffffffffffffffffffffffffffff168273ffffffffffffffffffffffffffffffffffffffff1603610269576040517f08c379a0000000000000000000000000000000000000000000000000000000008152600401610260906108c2565b60405180910390fd5b600073ffffffffffffffffffffffffffffffffffffffff168173ffffffffffffffffffffffffffffffffffffffff16036102d8576040517f08c379a00000000000000000000000000000000000000000000000000000000081526004016102cf90610954565b60405180910390fd5b8073ffffffffffffffffffffffffffffffffffffffff168273ffffffffffffffffffffffffffffffffffffffff1603610346576040517f08c379a000000000000000000000000000000000000000000000000000000000815260040161033d906109e6565b60405180910390fd5b8073ffffffffffffffffffffffffffffffffffffffff168273ffffffffffffffffffffffffffffffffffffffff16106103b4576040517f08c379a00000000000000000000000000000000000000000000000000000000081526004016103ab90610a9e565b60405180910390fd5b600073ffffffffffffffffffffffffffffffffffffffff16600160008473ffffffffffffffffffffffffffffffffffffffff1673ffffffffffffffffffffffffffffffffffffffff16815260200190815260200160002060008373ffffffffffffffffffffffffffffffffffffffff1673ffffffffffffffffffffffffffffffffffffffff16815260200190815260200160002060009054906101000a900473ffffffffffffffffffffffffffffffffffffffff1673ffffffffffffffffffffffffffffffffffffffff16146104bf576040517f08c379a00000000000000000000000000000000000000000000000000000000081526004016104b690610b0a565b60405180910390fd5b600082826040516104cf90610622565b6104da929190610b2a565b604051809103906000f0801580156104f6573d6000803e3d6000fd5b50905060008190506000819080600181540180825580915050600190039060005260206000200160009091909190916101000a81548173ffffffffffffffffffffffffffffffffffffffff021916908373ffffffffffffffffffffffffffffffffffffffff16021790555080600160008673ffffffffffffffffffffffffffffffffffffffff1673ffffffffffffffffffffffffffffffffffffffff16815260200190815260200160002060008573ffffffffffffffffffffffffffffffffffffffff1673ffffffffffffffffffffffffffffffffffffffff16815260200190815260200160002060006101000a81548173ffffffffffffffffffffffffffffffffffffffff021916908373ffffffffffffffffffffffffffffffffffffffff16021790555050505050565b61048380610b5483390190565b600080fd5b600073ffffffffffffffffffffffffffffffffffffffff82169050919050565b600061065f82610634565b9050919050565b61066f81610654565b811461067a57600080fd5b50565b60008135905061068c81610666565b92915050565b600080604083850312156106a9576106a861062f565b5b60006106b78582860161067d565b92505060206106c88582860161067d565b9150509250929050565b6106db81610654565b82525050565b60006020820190506106f660008301846106d2565b92915050565b600081519050919050565b600082825260208201905092915050565b6000819050602082019050919050565b61073181610654565b82525050565b60006107438383610728565b60208301905092915050565b6000602082019050919050565b6000610767826106fc565b6107718185610707565b935061077c83610718565b8060005b838110156107ad5781516107948882610737565b975061079f8361074f565b925050600181019050610780565b5085935050505092915050565b600060208201905081810360008301526107d4818461075c565b905092915050565b6000819050919050565b6107ef816107dc565b81146107fa57600080fd5b50565b60008135905061080c816107e6565b92915050565b6000602082840312156108285761082761062f565b5b6000610836848285016107fd565b91505092915050565b600082825260208201905092915050565b7f746f6b656e302061646472657373206d7573746e277420626520746865207a6560008201527f726f206164647265737300000000000000000000000000000000000000000000602082015250565b60006108ac602a8361083f565b91506108b782610850565b604082019050919050565b600060208201905081810360008301526108db8161089f565b9050919050565b7f746f6b656e312061646472657373206d7573746e277420626520746865207a6560008201527f726f206164647265737300000000000000000000000000000000000000000000602082015250565b600061093e602a8361083f565b9150610949826108e2565b604082019050919050565b6000602082019050818103600083015261096d81610931565b9050919050565b7f746f6b656e3020616e6420746f6b656e3120616464726573736573206d75737460008201527f6e277420626520657175616c0000000000000000000000000000000000000000602082015250565b60006109d0602c8361083f565b91506109db82610974565b604082019050919050565b600060208201905081810360008301526109ff816109c3565b9050919050565b7f746f6b656e3020616e6420746f6b656e31206d75737420626520617363656e6460008201527f696e676c7920736f7274656420627920746865697220455243323020636f6e7460208201527f7261637420616464726573736573000000000000000000000000000000000000604082015250565b6000610a88604e8361083f565b9150610a9382610a06565b606082019050919050565b60006020820190508181036000830152610ab781610a7b565b9050919050565b7f5468697320706f6f6c20616c7265616479206578697374730000000000000000600082015250565b6000610af460188361083f565b9150610aff82610abe565b602082019050919050565b60006020820190508181036000830152610b2381610ae7565b9050919050565b6000604082019050610b3f60008301856106d2565b610b4c60208301846106d2565b939250505056fe608060405234801561001057600080fd5b506040516104833803806104838339818101604052810190610032919061015e565b336000806101000a81548173ffffffffffffffffffffffffffffffffffffffff021916908373ffffffffffffffffffffffffffffffffffffffff16021790555081600160006101000a81548173ffffffffffffffffffffffffffffffffffffffff021916908373ffffffffffffffffffffffffffffffffffffffff16021790555080600260006101000a81548173ffffffffffffffffffffffffffffffffffffffff021916908373ffffffffffffffffffffffffffffffffffffffff160217905550505061019e565b600080fd5b600073ffffffffffffffffffffffffffffffffffffffff82169050919050565b600061012b82610100565b9050919050565b61013b81610120565b811461014657600080fd5b50565b60008151905061015881610132565b92915050565b60008060408385031215610175576101746100fb565b5b600061018385828601610149565b925050602061019485828601610149565b9150509250929050565b6102d6806101ad6000396000f3fe608060405234801561001057600080fd5b50600436106100625760003560e01c80630dfe1681146100675780631c8551d814610085578063b3950de1146100a1578063c037646a146100bd578063c45a0155146100d9578063d21220a7146100f7575b600080fd5b61006f610115565b60405161007c91906101d2565b60405180910390f35b61009f600480360381019061009a9190610260565b61013b565b005b6100bb60048036038101906100b69190610260565b61013f565b005b6100d760048036038101906100d29190610260565b610143565b005b6100e1610147565b6040516100ee91906101d2565b60405180910390f35b6100ff61016b565b60405161010c91906101d2565b60405180910390f35b600160009054906101000a900473ffffffffffffffffffffffffffffffffffffffff1681565b5050565b5050565b5050565b60008054906101000a900473ffffffffffffffffffffffffffffffffffffffff1681565b600260009054906101000a900473ffffffffffffffffffffffffffffffffffffffff1681565b600073ffffffffffffffffffffffffffffffffffffffff82169050919050565b60006101bc82610191565b9050919050565b6101cc816101b1565b82525050565b60006020820190506101e760008301846101c3565b92915050565b600080fd5b60008115159050919050565b610207816101f2565b811461021257600080fd5b50565b600081359050610224816101fe565b92915050565b6000819050919050565b61023d8161022a565b811461024857600080fd5b50565b60008135905061025a81610234565b92915050565b60008060408385031215610277576102766101ed565b5b600061028585828601610215565b92505060206102968582860161024b565b915050925092905056fea2646970667358221220bdfd09049544b89f521571e95954f34eebaa7e14be3335a4df98e58714df6e6b64736f6c63430008180033a26469706673582212202737d5a12cc2919db8438cb0d3f7ae8414639728444ab22348001865ea8b80d964736f6c63430008180033",
  "linkReferences": {},
  "deployedLinkReferences": {}
}