{
  "_format": "hh-sol-artifact-1",
  "contractName": "Pool",
  "sourceName": "contracts/Pool.sol",
  "abi": [
    {
      "inputs": [],
      "stateMutability": "nonpayable",
      "type": "constructor"
    },
    {
      "inputs": [],
      "name": "Burn_InsufficientLiquidity",
      "type": "error"
    },
    {
      "inputs": [
        {
          "internalType": "address",
          "name": "spender",
          "type": "address"
        },
        {
          "internalType": "uint256",
          "name": "allowance",
          "type": "uint256"
        },
        {
          "internalType": "uint256",
          "name": "needed",
          "type": "uint256"
        }
      ],
      "name": "ERC20InsufficientAllowance",
      "type": "error"
    },
    {
      "inputs": [
        {
          "internalType": "address",
          "name": "sender",
          "type": "address"
        },
        {
          "internalType": "uint256",
          "name": "balance",
          "type": "uint256"
        },
        {
          "internalType": "uint256",
          "name": "needed",
          "type": "uint256"
        }
      ],
      "name": "ERC20InsufficientBalance",
      "type": "error"
    },
    {
      "inputs": [
        {
          "internalType": "address",
          "name": "approver",
          "type": "address"
        }
      ],
      "name": "ERC20InvalidApprover",
      "type": "error"
    },
    {
      "inputs": [
        {
          "internalType": "address",
          "name": "receiver",
          "type": "address"
        }
      ],
      "name": "ERC20InvalidReceiver",
      "type": "error"
    },
    {
      "inputs": [
        {
          "internalType": "address",
          "name": "sender",
          "type": "address"
        }
      ],
      "name": "ERC20InvalidSender",
      "type": "error"
    },
    {
      "inputs": [
        {
          "internalType": "address",
          "name": "spender",
          "type": "address"
        }
      ],
      "name": "ERC20InvalidSpender",
      "type": "error"
    },
    {
      "inputs": [],
      "name": "InvalidK",
      "type": "error"
    },
    {
      "inputs": [],
      "name": "Mint_InsufficientLiquidity",
      "type": "error"
    },
    {
      "inputs": [],
      "name": "NotFactory",
      "type": "error"
    },
    {
      "inputs": [],
      "name": "ReentrancyGuard",
      "type": "error"
    },
    {
      "inputs": [],
      "name": "Swap_InsufficientInputAmount",
      "type": "error"
    },
    {
      "inputs": [],
      "name": "Swap_InsufficientLiquidity",
      "type": "error"
    },
    {
      "inputs": [],
      "name": "Swap_InvalidOutAmount",
      "type": "error"
    },
    {
      "inputs": [],
      "name": "Swap_InvalidTo",
      "type": "error"
    },
    {
      "anonymous": false,
      "inputs": [
        {
          "indexed": true,
          "internalType": "address",
          "name": "owner",
          "type": "address"
        },
        {
          "indexed": true,
          "internalType": "address",
          "name": "spender",
          "type": "address"
        },
        {
          "indexed": false,
          "internalType": "uint256",
          "name": "value",
          "type": "uint256"
        }
      ],
      "name": "Approval",
      "type": "event"
    },
    {
      "anonymous": false,
      "inputs": [
        {
          "indexed": true,
          "internalType": "address",
          "name": "sender",
          "type": "address"
        },
        {
          "indexed": false,
          "internalType": "uint256",
          "name": "reserve0",
          "type": "uint256"
        },
        {
          "indexed": false,
          "internalType": "uint256",
          "name": "reserve1",
          "type": "uint256"
        }
      ],
      "name": "Burn",
      "type": "event"
    },
    {
      "anonymous": false,
      "inputs": [
        {
          "indexed": true,
          "internalType": "address",
          "name": "sender",
          "type": "address"
        },
        {
          "indexed": false,
          "internalType": "uint256",
          "name": "reserve0",
          "type": "uint256"
        },
        {
          "indexed": false,
          "internalType": "uint256",
          "name": "reserve1",
          "type": "uint256"
        }
      ],
      "name": "Mint",
      "type": "event"
    },
    {
      "anonymous": false,
      "inputs": [
        {
          "indexed": true,
          "internalType": "address",
          "name": "sender",
          "type": "address"
        },
        {
          "indexed": false,
          "internalType": "uint256",
          "name": "amount0In",
          "type": "uint256"
        },
        {
          "indexed": false,
          "internalType": "uint256",
          "name": "amount1In",
          "type": "uint256"
        },
        {
          "indexed": false,
          "internalType": "uint256",
          "name": "amount0Out",
          "type": "uint256"
        },
        {
          "indexed": false,
          "internalType": "uint256",
          "name": "amount1Out",
          "type": "uint256"
        },
        {
          "indexed": false,
          "internalType": "address",
          "name": "to",
          "type": "address"
        }
      ],
      "name": "Swap",
      "type": "event"
    },
    {
      "anonymous": false,
      "inputs": [
        {
          "indexed": false,
          "internalType": "uint256",
          "name": "reserve0",
          "type": "uint256"
        },
        {
          "indexed": false,
          "internalType": "uint256",
          "name": "reserve1",
          "type": "uint256"
        }
      ],
      "name": "Sync",
      "type": "event"
    },
    {
      "anonymous": false,
      "inputs": [
        {
          "indexed": true,
          "internalType": "address",
          "name": "from",
          "type": "address"
        },
        {
          "indexed": true,
          "internalType": "address",
          "name": "to",
          "type": "address"
        },
        {
          "indexed": false,
          "internalType": "uint256",
          "name": "value",
          "type": "uint256"
        }
      ],
      "name": "Transfer",
      "type": "event"
    },
    {
      "inputs": [],
      "name": "INITIAL_BURN_AMOUNT",
      "outputs": [
        {
          "internalType": "uint256",
          "name": "",
          "type": "uint256"
        }
      ],
      "stateMutability": "view",
      "type": "function"
    },
    {
      "inputs": [
        {
          "internalType": "address",
          "name": "owner",
          "type": "address"
        },
        {
          "internalType": "address",
          "name": "spender",
          "type": "address"
        }
      ],
      "name": "allowance",
      "outputs": [
        {
          "internalType": "uint256",
          "name": "",
          "type": "uint256"
        }
      ],
      "stateMutability": "view",
      "type": "function"
    },
    {
      "inputs": [
        {
          "internalType": "address",
          "name": "spender",
          "type": "address"
        },
        {
          "internalType": "uint256",
          "name": "value",
          "type": "uint256"
        }
      ],
      "name": "approve",
      "outputs": [
        {
          "internalType": "bool",
          "name": "",
          "type": "bool"
        }
      ],
      "stateMutability": "nonpayable",
      "type": "function"
    },
    {
      "inputs": [
        {
          "internalType": "address",
          "name": "account",
          "type": "address"
        }
      ],
      "name": "balanceOf",
      "outputs": [
        {
          "internalType": "uint256",
          "name": "",
          "type": "uint256"
        }
      ],
      "stateMutability": "view",
      "type": "function"
    },
    {
      "inputs": [
        {
          "internalType": "address",
          "name": "to",
          "type": "address"
        }
      ],
      "name": "burn",
      "outputs": [
        {
          "internalType": "uint256",
          "name": "amount0",
          "type": "uint256"
        },
        {
          "internalType": "uint256",
          "name": "amount1",
          "type": "uint256"
        }
      ],
      "stateMutability": "nonpayable",
      "type": "function"
    },
    {
      "inputs": [],
      "name": "decimals",
      "outputs": [
        {
          "internalType": "uint8",
          "name": "",
          "type": "uint8"
        }
      ],
      "stateMutability": "view",
      "type": "function"
    },
    {
      "inputs": [],
      "name": "factory",
      "outputs": [
        {
          "internalType": "address",
          "name": "",
          "type": "address"
        }
      ],
      "stateMutability": "view",
      "type": "function"
    },
    {
      "inputs": [],
      "name": "getReserves",
      "outputs": [
        {
          "internalType": "uint112",
          "name": "",
          "type": "uint112"
        },
        {
          "internalType": "uint112",
          "name": "",
          "type": "uint112"
        },
        {
          "internalType": "uint32",
          "name": "",
          "type": "uint32"
        }
      ],
      "stateMutability": "view",
      "type": "function"
    },
    {
      "inputs": [
        {
          "internalType": "address",
          "name": "_token0",
          "type": "address"
        },
        {
          "internalType": "address",
          "name": "_token1",
          "type": "address"
        }
      ],
      "name": "initialize",
      "outputs": [],
      "stateMutability": "nonpayable",
      "type": "function"
    },
    {
      "inputs": [
        {
          "internalType": "address",
          "name": "to",
          "type": "address"
        }
      ],
      "name": "mint",
      "outputs": [
        {
          "internalType": "uint256",
          "name": "liquidity",
          "type": "uint256"
        }
      ],
      "stateMutability": "nonpayable",
      "type": "function"
    },
    {
      "inputs": [],
      "name": "name",
      "outputs": [
        {
          "internalType": "string",
          "name": "",
          "type": "string"
        }
      ],
      "stateMutability": "view",
      "type": "function"
    },
    {
      "inputs": [],
      "name": "price0CumulativeLast",
      "outputs": [
        {
          "internalType": "uint256",
          "name": "",
          "type": "uint256"
        }
      ],
      "stateMutability": "view",
      "type": "function"
    },
    {
      "inputs": [],
      "name": "price1CumulativeLast",
      "outputs": [
        {
          "internalType": "uint256",
          "name": "",
          "type": "uint256"
        }
      ],
      "stateMutability": "view",
      "type": "function"
    },
    {
      "inputs": [
        {
          "internalType": "uint256",
          "name": "amount0Out",
          "type": "uint256"
        },
        {
          "internalType": "uint256",
          "name": "amount1Out",
          "type": "uint256"
        },
        {
          "internalType": "address",
          "name": "to",
          "type": "address"
        }
      ],
      "name": "swap",
      "outputs": [],
      "stateMutability": "nonpayable",
      "type": "function"
    },
    {
      "inputs": [],
      "name": "symbol",
      "outputs": [
        {
          "internalType": "string",
          "name": "",
          "type": "string"
        }
      ],
      "stateMutability": "view",
      "type": "function"
    },
    {
      "inputs": [],
      "name": "sync",
      "outputs": [],
      "stateMutability": "nonpayable",
      "type": "function"
    },
    {
      "inputs": [],
      "name": "token0",
      "outputs": [
        {
          "internalType": "address",
          "name": "",
          "type": "address"
        }
      ],
      "stateMutability": "view",
      "type": "function"
    },
    {
      "inputs": [],
      "name": "token1",
      "outputs": [
        {
          "internalType": "address",
          "name": "",
          "type": "address"
        }
      ],
      "stateMutability": "view",
      "type": "function"
    },
    {
      "inputs": [],
      "name": "totalSupply",
      "outputs": [
        {
          "internalType": "uint256",
          "name": "",
          "type": "uint256"
        }
      ],
      "stateMutability": "view",
      "type": "function"
    },
    {
      "inputs": [
        {
          "internalType": "address",
          "name": "to",
          "type": "address"
        },
        {
          "internalType": "uint256",
          "name": "value",
          "type": "uint256"
        }
      ],
      "name": "transfer",
      "outputs": [
        {
          "internalType": "bool",
          "name": "",
          "type": "bool"
        }
      ],
      "stateMutability": "nonpayable",
      "type": "function"
    },
    {
      "inputs": [
        {
          "internalType": "address",
          "name": "from",
          "type": "address"
        },
        {
          "internalType": "address",
          "name": "to",
          "type": "address"
        },
        {
          "internalType": "uint256",
          "name": "value",
          "type": "uint256"
        }
      ],
      "name": "transferFrom",
      "outputs": [
        {
          "internalType": "bool",
          "name": "",
          "type": "bool"
        }
      ],
      "stateMutability": "nonpayable",
      "type": "function"
    }
  ],
  "bytecode": "0x60806040526103e86005556001600c553480156200001c57600080fd5b506040518060400160405280600881526020017f4c5020546f6b656e0000000000000000000000000000000000000000000000008152506040518060400160405280600281526020017f4c5000000000000000000000000000000000000000000000000000000000000081525081600390816200009a919062000370565b508060049081620000ac919062000370565b50505033600660006101000a81548173ffffffffffffffffffffffffffffffffffffffff021916908373ffffffffffffffffffffffffffffffffffffffff16021790555062000457565b600081519050919050565b7f4e487b7100000000000000000000000000000000000000000000000000000000600052604160045260246000fd5b7f4e487b7100000000000000000000000000000000000000000000000000000000600052602260045260246000fd5b600060028204905060018216806200017857607f821691505b6020821081036200018e576200018d62000130565b5b50919050565b60008190508160005260206000209050919050565b60006020601f8301049050919050565b600082821b905092915050565b600060088302620001f87fffffffffffffffffffffffffffffffffffffffffffffffffffffffffffffffff82620001b9565b620002048683620001b9565b95508019841693508086168417925050509392505050565b6000819050919050565b6000819050919050565b6000620002516200024b62000245846200021c565b62000226565b6200021c565b9050919050565b6000819050919050565b6200026d8362000230565b620002856200027c8262000258565b848454620001c6565b825550505050565b600090565b6200029c6200028d565b620002a981848462000262565b505050565b5b81811015620002d157620002c560008262000292565b600181019050620002af565b5050565b601f8211156200032057620002ea8162000194565b620002f584620001a9565b8101602085101562000305578190505b6200031d6200031485620001a9565b830182620002ae565b50505b505050565b600082821c905092915050565b6000620003456000198460080262000325565b1980831691505092915050565b600062000360838362000332565b9150826002028217905092915050565b6200037b82620000f6565b67ffffffffffffffff81111562000397576200039662000101565b5b620003a382546200015f565b620003b0828285620002d5565b600060209050601f831160018114620003e85760008415620003d3578287015190505b620003df858262000352565b8655506200044f565b601f198416620003f88662000194565b60005b828110156200042257848901518255600182019150602085019450602081019050620003fb565b868310156200044257848901516200043e601f89168262000332565b8355505b6001600288020188555050505b505050505050565b612a5180620004676000396000f3fe608060405234801561001057600080fd5b50600436106101375760003560e01c80635a3d5493116100b857806395d89b411161007c57806395d89b4114610357578063a9059cbb14610375578063c45a0155146103a5578063d21220a7146103c3578063dd62ed3e146103e1578063fff6cae91461041157610137565b80635a3d54931461028c5780636a627842146102aa5780636d9a640a146102da57806370a08231146102f657806389afcb441461032657610137565b806323b872dd116100ff57806323b872dd146101e657806326e7957014610216578063313ce56714610234578063485cc955146102525780635909c0d51461026e57610137565b806306fdde031461013c5780630902f1ac1461015a578063095ea7b31461017a5780630dfe1681146101aa57806318160ddd146101c8575b600080fd5b61014461041b565b60405161015191906122f0565b60405180910390f35b6101626104ad565b6040516101719392919061235a565b60405180910390f35b610194600480360381019061018f919061242a565b61050a565b6040516101a19190612485565b60405180910390f35b6101b261052d565b6040516101bf91906124af565b60405180910390f35b6101d0610553565b6040516101dd91906124d9565b60405180910390f35b61020060048036038101906101fb91906124f4565b61055d565b60405161020d9190612485565b60405180910390f35b61021e61058c565b60405161022b91906124d9565b60405180910390f35b61023c610592565b6040516102499190612563565b60405180910390f35b61026c6004803603810190610267919061257e565b61059b565b005b6102766106a8565b60405161028391906124d9565b60405180910390f35b6102946106ae565b6040516102a191906124d9565b60405180910390f35b6102c460048036038101906102bf91906125be565b6106b4565b6040516102d191906124d9565b60405180910390f35b6102f460048036038101906102ef91906125eb565b6109fe565b005b610310600480360381019061030b91906125be565b610f7f565b60405161031d91906124d9565b60405180910390f35b610340600480360381019061033b91906125be565b610fc7565b60405161034e92919061263e565b60405180910390f35b61035f6114e8565b60405161036c91906122f0565b60405180910390f35b61038f600480360381019061038a919061242a565b61157a565b60405161039c9190612485565b60405180910390f35b6103ad61159d565b6040516103ba91906124af565b60405180910390f35b6103cb6115c3565b6040516103d891906124af565b60405180910390f35b6103fb60048036038101906103f6919061257e565b6115e9565b60405161040891906124d9565b60405180910390f35b610419611670565b005b60606003805461042a90612696565b80601f016020809104026020016040519081016040528092919081815260200182805461045690612696565b80156104a35780601f10610478576101008083540402835291602001916104a3565b820191906000526020600020905b81548152906001019060200180831161048657829003601f168201915b5050505050905090565b6000806000600960009054906101000a90046dffffffffffffffffffffffffffff166009600e9054906101000a90046dffffffffffffffffffffffffffff166009601c9054906101000a900463ffffffff16925092509250909192565b6000806105156117c6565b90506105228185856117ce565b600191505092915050565b600760009054906101000a900473ffffffffffffffffffffffffffffffffffffffff1681565b6000600254905090565b6000806105686117c6565b90506105758582856117e0565b610580858585611874565b60019150509392505050565b60055481565b60006012905090565b600660009054906101000a900473ffffffffffffffffffffffffffffffffffffffff1673ffffffffffffffffffffffffffffffffffffffff163373ffffffffffffffffffffffffffffffffffffffff1614610622576040517f32cc723600000000000000000000000000000000000000000000000000000000815260040160405180910390fd5b81600760006101000a81548173ffffffffffffffffffffffffffffffffffffffff021916908373ffffffffffffffffffffffffffffffffffffffff16021790555080600860006101000a81548173ffffffffffffffffffffffffffffffffffffffff021916908373ffffffffffffffffffffffffffffffffffffffff1602179055505050565b600a5481565b600b5481565b60006001600c54146106f2576040517f8beb9d1600000000000000000000000000000000000000000000000000000000815260040160405180910390fd5b6002600c819055506000806107056104ad565b50915091506000600760009054906101000a900473ffffffffffffffffffffffffffffffffffffffff1673ffffffffffffffffffffffffffffffffffffffff166370a08231306040518263ffffffff1660e01b815260040161076791906124af565b602060405180830381865afa158015610784573d6000803e3d6000fd5b505050506040513d601f19601f820116820180604052508101906107a891906126dc565b90506000600860009054906101000a900473ffffffffffffffffffffffffffffffffffffffff1673ffffffffffffffffffffffffffffffffffffffff166370a08231306040518263ffffffff1660e01b815260040161080791906124af565b602060405180830381865afa158015610824573d6000803e3d6000fd5b505050506040513d601f19601f8201168201806040525081019061084891906126dc565b90506000846dffffffffffffffffffffffffffff16836108689190612738565b90506000846dffffffffffffffffffffffffffff16836108889190612738565b90506000610894610553565b036108e4576005546108b082846108ab919061276c565b611968565b6108ba9190612738565b96506108d388600554896108ce91906127ae565b611a61565b6108df88600554611ae3565b61094b565b610948866dffffffffffffffffffffffffffff16610900610553565b8461090b919061276c565b6109159190612811565b866dffffffffffffffffffffffffffff1661092e610553565b84610939919061276c565b6109439190612811565b611b65565b96505b60008703610985576040517f0428795f00000000000000000000000000000000000000000000000000000000815260040160405180910390fd5b61098f8888611a61565b61099b84848888611b7e565b3373ffffffffffffffffffffffffffffffffffffffff167f4c209b5fc8ad50758f13e2e1088ba56a560dff690a1c6fef26394f4c03821c4f83836040516109e392919061263e565b60405180910390a25050505050506001600c81905550919050565b6001600c5414610a3a576040517f8beb9d1600000000000000000000000000000000000000000000000000000000815260040160405180910390fd5b6002600c81905550600083148015610a525750600082145b15610a89576040517fe9eb004d00000000000000000000000000000000000000000000000000000000815260040160405180910390fd5b600080610a946104ad565b5091509150816dffffffffffffffffffffffffffff16851180610ac65750806dffffffffffffffffffffffffffff1684115b15610afd576040517fabd6594f00000000000000000000000000000000000000000000000000000000815260040160405180910390fd5b6000600760009054906101000a900473ffffffffffffffffffffffffffffffffffffffff1690506000600860009054906101000a900473ffffffffffffffffffffffffffffffffffffffff1690508173ffffffffffffffffffffffffffffffffffffffff168573ffffffffffffffffffffffffffffffffffffffff161480610bb057508073ffffffffffffffffffffffffffffffffffffffff168573ffffffffffffffffffffffffffffffffffffffff16145b15610be7576040517f2417c1e200000000000000000000000000000000000000000000000000000000815260040160405180910390fd5b6000871115610c70578173ffffffffffffffffffffffffffffffffffffffff1663a9059cbb86896040518363ffffffff1660e01b8152600401610c2b929190612842565b6020604051808303816000875af1158015610c4a573d6000803e3d6000fd5b505050506040513d601f19601f82011682018060405250810190610c6e9190612897565b505b6000861115610cf9578073ffffffffffffffffffffffffffffffffffffffff1663a9059cbb86886040518363ffffffff1660e01b8152600401610cb4929190612842565b6020604051808303816000875af1158015610cd3573d6000803e3d6000fd5b505050506040513d601f19601f82011682018060405250810190610cf79190612897565b505b60008273ffffffffffffffffffffffffffffffffffffffff166370a08231306040518263ffffffff1660e01b8152600401610d3491906124af565b602060405180830381865afa158015610d51573d6000803e3d6000fd5b505050506040513d601f19601f82011682018060405250810190610d7591906126dc565b905060008273ffffffffffffffffffffffffffffffffffffffff166370a08231306040518263ffffffff1660e01b8152600401610db291906124af565b602060405180830381865afa158015610dcf573d6000803e3d6000fd5b505050506040513d601f19601f82011682018060405250810190610df391906126dc565b9050600089876dffffffffffffffffffffffffffff16610e139190612738565b8311610e20576000610e48565b89876dffffffffffffffffffffffffffff16610e3c9190612738565b83610e479190612738565b5b9050600089876dffffffffffffffffffffffffffff16610e689190612738565b8311610e75576000610e9d565b89876dffffffffffffffffffffffffffff16610e919190612738565b83610e9c9190612738565b5b9050600082148015610eaf5750600081145b15610ee6576040517f41c5dd8800000000000000000000000000000000000000000000000000000000815260040160405180910390fd5b838389898082028385021015610f045763bd8bc36460005260206000fd5b50505050610f1484848a8a611b7e565b3373ffffffffffffffffffffffffffffffffffffffff167fd78ad95fa46c994b6551d0da85fc275fe613ce37657fb8d5e3d130840159d82283838e8e8e604051610f629594939291906128c4565b60405180910390a250505050505050506001600c81905550505050565b60008060008373ffffffffffffffffffffffffffffffffffffffff1673ffffffffffffffffffffffffffffffffffffffff168152602001908152602001600020549050919050565b6000806001600c5414611006576040517f8beb9d1600000000000000000000000000000000000000000000000000000000815260040160405180910390fd5b6002600c819055506000806110196104ad565b50915091506000600760009054906101000a900473ffffffffffffffffffffffffffffffffffffffff1673ffffffffffffffffffffffffffffffffffffffff166370a08231306040518263ffffffff1660e01b815260040161107b91906124af565b602060405180830381865afa158015611098573d6000803e3d6000fd5b505050506040513d601f19601f820116820180604052508101906110bc91906126dc565b90506000600860009054906101000a900473ffffffffffffffffffffffffffffffffffffffff1673ffffffffffffffffffffffffffffffffffffffff166370a08231306040518263ffffffff1660e01b815260040161111b91906124af565b602060405180830381865afa158015611138573d6000803e3d6000fd5b505050506040513d601f19601f8201168201806040525081019061115c91906126dc565b9050600061116930610f7f565b90506000611175610553565b9050808483611184919061276c565b61118e9190612811565b975080838361119d919061276c565b6111a79190612811565b96506000881115806111ba575060008711155b156111f1576040517fe83e6eda00000000000000000000000000000000000000000000000000000000815260040160405180910390fd5b6111fb3083611ae3565b600760009054906101000a900473ffffffffffffffffffffffffffffffffffffffff1673ffffffffffffffffffffffffffffffffffffffff1663a9059cbb8a8a6040518363ffffffff1660e01b8152600401611258929190612842565b6020604051808303816000875af1158015611277573d6000803e3d6000fd5b505050506040513d601f19601f8201168201806040525081019061129b9190612897565b50600860009054906101000a900473ffffffffffffffffffffffffffffffffffffffff1673ffffffffffffffffffffffffffffffffffffffff1663a9059cbb8a896040518363ffffffff1660e01b81526004016112f9929190612842565b6020604051808303816000875af1158015611318573d6000803e3d6000fd5b505050506040513d601f19601f8201168201806040525081019061133c9190612897565b50600760009054906101000a900473ffffffffffffffffffffffffffffffffffffffff1673ffffffffffffffffffffffffffffffffffffffff166370a08231306040518263ffffffff1660e01b815260040161139891906124af565b602060405180830381865afa1580156113b5573d6000803e3d6000fd5b505050506040513d601f19601f820116820180604052508101906113d991906126dc565b9350600860009054906101000a900473ffffffffffffffffffffffffffffffffffffffff1673ffffffffffffffffffffffffffffffffffffffff166370a08231306040518263ffffffff1660e01b815260040161143691906124af565b602060405180830381865afa158015611453573d6000803e3d6000fd5b505050506040513d601f19601f8201168201806040525081019061147791906126dc565b925061148584848888611b7e565b3373ffffffffffffffffffffffffffffffffffffffff167f49995e5dd6158cf69ad3e9777c46755a1a826a446c6416992167462dad033b2a89896040516114cd92919061263e565b60405180910390a25050505050506001600c81905550915091565b6060600480546114f790612696565b80601f016020809104026020016040519081016040528092919081815260200182805461152390612696565b80156115705780601f1061154557610100808354040283529160200191611570565b820191906000526020600020905b81548152906001019060200180831161155357829003601f168201915b5050505050905090565b6000806115856117c6565b9050611592818585611874565b600191505092915050565b600660009054906101000a900473ffffffffffffffffffffffffffffffffffffffff1681565b600860009054906101000a900473ffffffffffffffffffffffffffffffffffffffff1681565b6000600160008473ffffffffffffffffffffffffffffffffffffffff1673ffffffffffffffffffffffffffffffffffffffff16815260200190815260200160002060008373ffffffffffffffffffffffffffffffffffffffff1673ffffffffffffffffffffffffffffffffffffffff16815260200190815260200160002054905092915050565b60008061167b6104ad565b50915091506117c2600760009054906101000a900473ffffffffffffffffffffffffffffffffffffffff1673ffffffffffffffffffffffffffffffffffffffff166370a08231306040518263ffffffff1660e01b81526004016116de91906124af565b602060405180830381865afa1580156116fb573d6000803e3d6000fd5b505050506040513d601f19601f8201168201806040525081019061171f91906126dc565b600860009054906101000a900473ffffffffffffffffffffffffffffffffffffffff1673ffffffffffffffffffffffffffffffffffffffff166370a08231306040518263ffffffff1660e01b815260040161177a91906124af565b602060405180830381865afa158015611797573d6000803e3d6000fd5b505050506040513d601f19601f820116820180604052508101906117bb91906126dc565b8484611b7e565b5050565b600033905090565b6117db8383836001611d83565b505050565b60006117ec84846115e9565b90507fffffffffffffffffffffffffffffffffffffffffffffffffffffffffffffffff811461186e578181101561185e578281836040517ffb8f41b200000000000000000000000000000000000000000000000000000000815260040161185593929190612917565b60405180910390fd5b61186d84848484036000611d83565b5b50505050565b600073ffffffffffffffffffffffffffffffffffffffff168373ffffffffffffffffffffffffffffffffffffffff16036118e65760006040517f96c6fd1e0000000000000000000000000000000000000000000000000000000081526004016118dd91906124af565b60405180910390fd5b600073ffffffffffffffffffffffffffffffffffffffff168273ffffffffffffffffffffffffffffffffffffffff16036119585760006040517fec442f0500000000000000000000000000000000000000000000000000000000815260040161194f91906124af565b60405180910390fd5b611963838383611f5a565b505050565b600080820361197a5760009050611a5c565b600060016119878461217f565b901c6001901b905060018184816119a1576119a06127e2565b5b048201901c905060018184816119ba576119b96127e2565b5b048201901c905060018184816119d3576119d26127e2565b5b048201901c905060018184816119ec576119eb6127e2565b5b048201901c90506001818481611a0557611a046127e2565b5b048201901c90506001818481611a1e57611a1d6127e2565b5b048201901c90506001818481611a3757611a366127e2565b5b048201901c9050611a5881828581611a5257611a516127e2565b5b04611b65565b9150505b919050565b600073ffffffffffffffffffffffffffffffffffffffff168273ffffffffffffffffffffffffffffffffffffffff1603611ad35760006040517fec442f05000000000000000000000000000000000000000000000000000000008152600401611aca91906124af565b60405180910390fd5b611adf60008383611f5a565b5050565b600073ffffffffffffffffffffffffffffffffffffffff168273ffffffffffffffffffffffffffffffffffffffff1603611b555760006040517f96c6fd1e000000000000000000000000000000000000000000000000000000008152600401611b4c91906124af565b60405180910390fd5b611b6182600083611f5a565b5050565b6000818310611b745781611b76565b825b905092915050565b600064010000000042611b91919061294e565b905060006009601c9054906101000a900463ffffffff1682611bb3919061297f565b905060008163ffffffff16118015611bdc57506000846dffffffffffffffffffffffffffff1614155b8015611bf957506000836dffffffffffffffffffffffffffff1614155b15611c7f576000846dffffffffffffffffffffffffffff166070856dffffffffffffffffffffffffffff16901b611c309190612811565b90506000846dffffffffffffffffffffffffffff166070876dffffffffffffffffffffffffffff16901b611c649190612811565b9050600a600b84840282540182558483028154018155505050505b85600960006101000a8154816dffffffffffffffffffffffffffff02191690836dffffffffffffffffffffffffffff160217905550846009600e6101000a8154816dffffffffffffffffffffffffffff02191690836dffffffffffffffffffffffffffff160217905550816009601c6101000a81548163ffffffff021916908363ffffffff1602179055507fcf2aa50876cdfbb541206f89af0ee78d44a2abf8d328e37fa4917f982149848a600960009054906101000a90046dffffffffffffffffffffffffffff166009600e9054906101000a90046dffffffffffffffffffffffffffff16604051611d739291906129f2565b60405180910390a1505050505050565b600073ffffffffffffffffffffffffffffffffffffffff168473ffffffffffffffffffffffffffffffffffffffff1603611df55760006040517fe602df05000000000000000000000000000000000000000000000000000000008152600401611dec91906124af565b60405180910390fd5b600073ffffffffffffffffffffffffffffffffffffffff168373ffffffffffffffffffffffffffffffffffffffff1603611e675760006040517f94280d62000000000000000000000000000000000000000000000000000000008152600401611e5e91906124af565b60405180910390fd5b81600160008673ffffffffffffffffffffffffffffffffffffffff1673ffffffffffffffffffffffffffffffffffffffff16815260200190815260200160002060008573ffffffffffffffffffffffffffffffffffffffff1673ffffffffffffffffffffffffffffffffffffffff168152602001908152602001600020819055508015611f54578273ffffffffffffffffffffffffffffffffffffffff168473ffffffffffffffffffffffffffffffffffffffff167f8c5be1e5ebec7d5bd14f71427d1e84f3dd0314c0f7b2291e5b200ac8c7c3b92584604051611f4b91906124d9565b60405180910390a35b50505050565b600073ffffffffffffffffffffffffffffffffffffffff168373ffffffffffffffffffffffffffffffffffffffff1603611fac578060026000828254611fa091906127ae565b9250508190555061207f565b60008060008573ffffffffffffffffffffffffffffffffffffffff1673ffffffffffffffffffffffffffffffffffffffff16815260200190815260200160002054905081811015612038578381836040517fe450d38c00000000000000000000000000000000000000000000000000000000815260040161202f93929190612917565b60405180910390fd5b8181036000808673ffffffffffffffffffffffffffffffffffffffff1673ffffffffffffffffffffffffffffffffffffffff16815260200190815260200160002081905550505b600073ffffffffffffffffffffffffffffffffffffffff168273ffffffffffffffffffffffffffffffffffffffff16036120c85780600260008282540392505081905550612115565b806000808473ffffffffffffffffffffffffffffffffffffffff1673ffffffffffffffffffffffffffffffffffffffff168152602001908152602001600020600082825401925050819055505b8173ffffffffffffffffffffffffffffffffffffffff168373ffffffffffffffffffffffffffffffffffffffff167fddf252ad1be2c89b69c2b068fc378daa952ba7f163c4a11628f55a4df523b3ef8360405161217291906124d9565b60405180910390a3505050565b600080600090506000608084901c11156121a157608083901c92506080810190505b6000604084901c11156121bc57604083901c92506040810190505b6000602084901c11156121d757602083901c92506020810190505b6000601084901c11156121f257601083901c92506010810190505b6000600884901c111561220d57600883901c92506008810190505b6000600484901c111561222857600483901c92506004810190505b6000600284901c111561224357600283901c92506002810190505b6000600184901c1115612257576001810190505b80915050919050565b600081519050919050565b600082825260208201905092915050565b60005b8381101561229a57808201518184015260208101905061227f565b60008484015250505050565b6000601f19601f8301169050919050565b60006122c282612260565b6122cc818561226b565b93506122dc81856020860161227c565b6122e5816122a6565b840191505092915050565b6000602082019050818103600083015261230a81846122b7565b905092915050565b60006dffffffffffffffffffffffffffff82169050919050565b61233581612312565b82525050565b600063ffffffff82169050919050565b6123548161233b565b82525050565b600060608201905061236f600083018661232c565b61237c602083018561232c565b612389604083018461234b565b949350505050565b600080fd5b600073ffffffffffffffffffffffffffffffffffffffff82169050919050565b60006123c182612396565b9050919050565b6123d1816123b6565b81146123dc57600080fd5b50565b6000813590506123ee816123c8565b92915050565b6000819050919050565b612407816123f4565b811461241257600080fd5b50565b600081359050612424816123fe565b92915050565b6000806040838503121561244157612440612391565b5b600061244f858286016123df565b925050602061246085828601612415565b9150509250929050565b60008115159050919050565b61247f8161246a565b82525050565b600060208201905061249a6000830184612476565b92915050565b6124a9816123b6565b82525050565b60006020820190506124c460008301846124a0565b92915050565b6124d3816123f4565b82525050565b60006020820190506124ee60008301846124ca565b92915050565b60008060006060848603121561250d5761250c612391565b5b600061251b868287016123df565b935050602061252c868287016123df565b925050604061253d86828701612415565b9150509250925092565b600060ff82169050919050565b61255d81612547565b82525050565b60006020820190506125786000830184612554565b92915050565b6000806040838503121561259557612594612391565b5b60006125a3858286016123df565b92505060206125b4858286016123df565b9150509250929050565b6000602082840312156125d4576125d3612391565b5b60006125e2848285016123df565b91505092915050565b60008060006060848603121561260457612603612391565b5b600061261286828701612415565b935050602061262386828701612415565b9250506040612634868287016123df565b9150509250925092565b600060408201905061265360008301856124ca565b61266060208301846124ca565b9392505050565b7f4e487b7100000000000000000000000000000000000000000000000000000000600052602260045260246000fd5b600060028204905060018216806126ae57607f821691505b6020821081036126c1576126c0612667565b5b50919050565b6000815190506126d6816123fe565b92915050565b6000602082840312156126f2576126f1612391565b5b6000612700848285016126c7565b91505092915050565b7f4e487b7100000000000000000000000000000000000000000000000000000000600052601160045260246000fd5b6000612743826123f4565b915061274e836123f4565b925082820390508181111561276657612765612709565b5b92915050565b6000612777826123f4565b9150612782836123f4565b9250828202612790816123f4565b915082820484148315176127a7576127a6612709565b5b5092915050565b60006127b9826123f4565b91506127c4836123f4565b92508282019050808211156127dc576127db612709565b5b92915050565b7f4e487b7100000000000000000000000000000000000000000000000000000000600052601260045260246000fd5b600061281c826123f4565b9150612827836123f4565b925082612837576128366127e2565b5b828204905092915050565b600060408201905061285760008301856124a0565b61286460208301846124ca565b9392505050565b6128748161246a565b811461287f57600080fd5b50565b6000815190506128918161286b565b92915050565b6000602082840312156128ad576128ac612391565b5b60006128bb84828501612882565b91505092915050565b600060a0820190506128d960008301886124ca565b6128e660208301876124ca565b6128f360408301866124ca565b61290060608301856124ca565b61290d60808301846124a0565b9695505050505050565b600060608201905061292c60008301866124a0565b61293960208301856124ca565b61294660408301846124ca565b949350505050565b6000612959826123f4565b9150612964836123f4565b925082612974576129736127e2565b5b828206905092915050565b600061298a8261233b565b91506129958361233b565b9250828203905063ffffffff8111156129b1576129b0612709565b5b92915050565b6000819050919050565b60006129dc6129d76129d284612312565b6129b7565b6123f4565b9050919050565b6129ec816129c1565b82525050565b6000604082019050612a0760008301856129e3565b612a1460208301846129e3565b939250505056fea2646970667358221220f6924bde32fea00e707fed9dc381c6b870b2e9aec2e2c32f90865f8431447fe964736f6c63430008180033",
  "linkReferences": {},
  "deployedLinkReferences": {}
}