{
  "_format": "hh-sol-artifact-1",
  "contractName": "Pool",
  "sourceName": "contracts/Pool.sol",
  "abi": [
    {
      "inputs": [],
      "stateMutability": "nonpayable",
      "type": "constructor"
    },
    {
      "inputs": [],
      "name": "Burn_InsufficientLiquidity",
      "type": "error"
    },
    {
      "inputs": [
        {
          "internalType": "address",
          "name": "spender",
          "type": "address"
        },
        {
          "internalType": "uint256",
          "name": "allowance",
          "type": "uint256"
        },
        {
          "internalType": "uint256",
          "name": "needed",
          "type": "uint256"
        }
      ],
      "name": "ERC20InsufficientAllowance",
      "type": "error"
    },
    {
      "inputs": [
        {
          "internalType": "address",
          "name": "sender",
          "type": "address"
        },
        {
          "internalType": "uint256",
          "name": "balance",
          "type": "uint256"
        },
        {
          "internalType": "uint256",
          "name": "needed",
          "type": "uint256"
        }
      ],
      "name": "ERC20InsufficientBalance",
      "type": "error"
    },
    {
      "inputs": [
        {
          "internalType": "address",
          "name": "approver",
          "type": "address"
        }
      ],
      "name": "ERC20InvalidApprover",
      "type": "error"
    },
    {
      "inputs": [
        {
          "internalType": "address",
          "name": "receiver",
          "type": "address"
        }
      ],
      "name": "ERC20InvalidReceiver",
      "type": "error"
    },
    {
      "inputs": [
        {
          "internalType": "address",
          "name": "sender",
          "type": "address"
        }
      ],
      "name": "ERC20InvalidSender",
      "type": "error"
    },
    {
      "inputs": [
        {
          "internalType": "address",
          "name": "spender",
          "type": "address"
        }
      ],
      "name": "ERC20InvalidSpender",
      "type": "error"
    },
    {
      "inputs": [],
      "name": "InvalidK",
      "type": "error"
    },
    {
      "inputs": [],
      "name": "Mint_InsufficientLiquidity",
      "type": "error"
    },
    {
      "inputs": [],
      "name": "NotFactory",
      "type": "error"
    },
    {
      "inputs": [],
      "name": "ReentrancyGuard",
      "type": "error"
    },
    {
      "inputs": [],
      "name": "Swap_InsufficientInputAmount",
      "type": "error"
    },
    {
      "inputs": [],
      "name": "Swap_InsufficientLiquidity",
      "type": "error"
    },
    {
      "inputs": [],
      "name": "Swap_InvalidOutAmount",
      "type": "error"
    },
    {
      "inputs": [],
      "name": "Swap_InvalidTo",
      "type": "error"
    },
    {
      "anonymous": false,
      "inputs": [
        {
          "indexed": true,
          "internalType": "address",
          "name": "owner",
          "type": "address"
        },
        {
          "indexed": true,
          "internalType": "address",
          "name": "spender",
          "type": "address"
        },
        {
          "indexed": false,
          "internalType": "uint256",
          "name": "value",
          "type": "uint256"
        }
      ],
      "name": "Approval",
      "type": "event"
    },
    {
      "anonymous": false,
      "inputs": [
        {
          "indexed": true,
          "internalType": "address",
          "name": "sender",
          "type": "address"
        },
        {
          "indexed": false,
          "internalType": "uint256",
          "name": "reserve0",
          "type": "uint256"
        },
        {
          "indexed": false,
          "internalType": "uint256",
          "name": "reserve1",
          "type": "uint256"
        }
      ],
      "name": "Burn",
      "type": "event"
    },
    {
      "anonymous": false,
      "inputs": [
        {
          "indexed": true,
          "internalType": "address",
          "name": "sender",
          "type": "address"
        },
        {
          "indexed": false,
          "internalType": "uint256",
          "name": "reserve0",
          "type": "uint256"
        },
        {
          "indexed": false,
          "internalType": "uint256",
          "name": "reserve1",
          "type": "uint256"
        }
      ],
      "name": "Mint",
      "type": "event"
    },
    {
      "anonymous": false,
      "inputs": [
        {
          "indexed": true,
          "internalType": "address",
          "name": "sender",
          "type": "address"
        },
        {
          "indexed": false,
          "internalType": "uint256",
          "name": "amount0In",
          "type": "uint256"
        },
        {
          "indexed": false,
          "internalType": "uint256",
          "name": "amount1In",
          "type": "uint256"
        },
        {
          "indexed": false,
          "internalType": "uint256",
          "name": "amount0Out",
          "type": "uint256"
        },
        {
          "indexed": false,
          "internalType": "uint256",
          "name": "amount1Out",
          "type": "uint256"
        },
        {
          "indexed": false,
          "internalType": "address",
          "name": "to",
          "type": "address"
        }
      ],
      "name": "Swap",
      "type": "event"
    },
    {
      "anonymous": false,
      "inputs": [
        {
          "indexed": false,
          "internalType": "uint256",
          "name": "reserve0",
          "type": "uint256"
        },
        {
          "indexed": false,
          "internalType": "uint256",
          "name": "reserve1",
          "type": "uint256"
        }
      ],
      "name": "Sync",
      "type": "event"
    },
    {
      "anonymous": false,
      "inputs": [
        {
          "indexed": true,
          "internalType": "address",
          "name": "from",
          "type": "address"
        },
        {
          "indexed": true,
          "internalType": "address",
          "name": "to",
          "type": "address"
        },
        {
          "indexed": false,
          "internalType": "uint256",
          "name": "value",
          "type": "uint256"
        }
      ],
      "name": "Transfer",
      "type": "event"
    },
    {
      "inputs": [],
      "name": "INITIAL_BURN_AMOUNT",
      "outputs": [
        {
          "internalType": "uint256",
          "name": "",
          "type": "uint256"
        }
      ],
      "stateMutability": "view",
      "type": "function"
    },
    {
      "inputs": [
        {
          "internalType": "address",
          "name": "owner",
          "type": "address"
        },
        {
          "internalType": "address",
          "name": "spender",
          "type": "address"
        }
      ],
      "name": "allowance",
      "outputs": [
        {
          "internalType": "uint256",
          "name": "",
          "type": "uint256"
        }
      ],
      "stateMutability": "view",
      "type": "function"
    },
    {
      "inputs": [
        {
          "internalType": "address",
          "name": "spender",
          "type": "address"
        },
        {
          "internalType": "uint256",
          "name": "value",
          "type": "uint256"
        }
      ],
      "name": "approve",
      "outputs": [
        {
          "internalType": "bool",
          "name": "",
          "type": "bool"
        }
      ],
      "stateMutability": "nonpayable",
      "type": "function"
    },
    {
      "inputs": [
        {
          "internalType": "address",
          "name": "account",
          "type": "address"
        }
      ],
      "name": "balanceOf",
      "outputs": [
        {
          "internalType": "uint256",
          "name": "",
          "type": "uint256"
        }
      ],
      "stateMutability": "view",
      "type": "function"
    },
    {
      "inputs": [
        {
          "internalType": "address",
          "name": "to",
          "type": "address"
        }
      ],
      "name": "burn",
      "outputs": [
        {
          "internalType": "uint256",
          "name": "amount0",
          "type": "uint256"
        },
        {
          "internalType": "uint256",
          "name": "amount1",
          "type": "uint256"
        }
      ],
      "stateMutability": "nonpayable",
      "type": "function"
    },
    {
      "inputs": [],
      "name": "decimals",
      "outputs": [
        {
          "internalType": "uint8",
          "name": "",
          "type": "uint8"
        }
      ],
      "stateMutability": "view",
      "type": "function"
    },
    {
      "inputs": [],
      "name": "factory",
      "outputs": [
        {
          "internalType": "address",
          "name": "",
          "type": "address"
        }
      ],
      "stateMutability": "view",
      "type": "function"
    },
    {
      "inputs": [],
      "name": "getReserves",
      "outputs": [
        {
          "internalType": "uint112",
          "name": "",
          "type": "uint112"
        },
        {
          "internalType": "uint112",
          "name": "",
          "type": "uint112"
        },
        {
          "internalType": "uint32",
          "name": "",
          "type": "uint32"
        }
      ],
      "stateMutability": "view",
      "type": "function"
    },
    {
      "inputs": [
        {
          "internalType": "address",
          "name": "_token0",
          "type": "address"
        },
        {
          "internalType": "address",
          "name": "_token1",
          "type": "address"
        }
      ],
      "name": "initialize",
      "outputs": [],
      "stateMutability": "nonpayable",
      "type": "function"
    },
    {
      "inputs": [
        {
          "internalType": "address",
          "name": "to",
          "type": "address"
        }
      ],
      "name": "mint",
      "outputs": [
        {
          "internalType": "uint256",
          "name": "liquidity",
          "type": "uint256"
        }
      ],
      "stateMutability": "nonpayable",
      "type": "function"
    },
    {
      "inputs": [],
      "name": "name",
      "outputs": [
        {
          "internalType": "string",
          "name": "",
          "type": "string"
        }
      ],
      "stateMutability": "view",
      "type": "function"
    },
    {
      "inputs": [],
      "name": "price0CumulativeLast",
      "outputs": [
        {
          "internalType": "uint256",
          "name": "",
          "type": "uint256"
        }
      ],
      "stateMutability": "view",
      "type": "function"
    },
    {
      "inputs": [],
      "name": "price1CumulativeLast",
      "outputs": [
        {
          "internalType": "uint256",
          "name": "",
          "type": "uint256"
        }
      ],
      "stateMutability": "view",
      "type": "function"
    },
    {
      "inputs": [],
      "name": "reserve0",
      "outputs": [
        {
          "internalType": "uint112",
          "name": "",
          "type": "uint112"
        }
      ],
      "stateMutability": "view",
      "type": "function"
    },
    {
      "inputs": [],
      "name": "reserve1",
      "outputs": [
        {
          "internalType": "uint112",
          "name": "",
          "type": "uint112"
        }
      ],
      "stateMutability": "view",
      "type": "function"
    },
    {
      "inputs": [
        {
          "internalType": "uint256",
          "name": "amount0Out",
          "type": "uint256"
        },
        {
          "internalType": "uint256",
          "name": "amount1Out",
          "type": "uint256"
        },
        {
          "internalType": "address",
          "name": "to",
          "type": "address"
        }
      ],
      "name": "swap",
      "outputs": [],
      "stateMutability": "nonpayable",
      "type": "function"
    },
    {
      "inputs": [],
      "name": "symbol",
      "outputs": [
        {
          "internalType": "string",
          "name": "",
          "type": "string"
        }
      ],
      "stateMutability": "view",
      "type": "function"
    },
    {
      "inputs": [],
      "name": "sync",
      "outputs": [],
      "stateMutability": "nonpayable",
      "type": "function"
    },
    {
      "inputs": [],
      "name": "token0",
      "outputs": [
        {
          "internalType": "address",
          "name": "",
          "type": "address"
        }
      ],
      "stateMutability": "view",
      "type": "function"
    },
    {
      "inputs": [],
      "name": "token1",
      "outputs": [
        {
          "internalType": "address",
          "name": "",
          "type": "address"
        }
      ],
      "stateMutability": "view",
      "type": "function"
    },
    {
      "inputs": [],
      "name": "totalSupply",
      "outputs": [
        {
          "internalType": "uint256",
          "name": "",
          "type": "uint256"
        }
      ],
      "stateMutability": "view",
      "type": "function"
    },
    {
      "inputs": [
        {
          "internalType": "address",
          "name": "to",
          "type": "address"
        },
        {
          "internalType": "uint256",
          "name": "value",
          "type": "uint256"
        }
      ],
      "name": "transfer",
      "outputs": [
        {
          "internalType": "bool",
          "name": "",
          "type": "bool"
        }
      ],
      "stateMutability": "nonpayable",
      "type": "function"
    },
    {
      "inputs": [
        {
          "internalType": "address",
          "name": "from",
          "type": "address"
        },
        {
          "internalType": "address",
          "name": "to",
          "type": "address"
        },
        {
          "internalType": "uint256",
          "name": "value",
          "type": "uint256"
        }
      ],
      "name": "transferFrom",
      "outputs": [
        {
          "internalType": "bool",
          "name": "",
          "type": "bool"
        }
      ],
      "stateMutability": "nonpayable",
      "type": "function"
    }
  ],
  "bytecode": "0x60806040526103e86005556001600c553480156200001c57600080fd5b506040518060400160405280600881526020017f4c5020546f6b656e0000000000000000000000000000000000000000000000008152506040518060400160405280600281526020017f4c5000000000000000000000000000000000000000000000000000000000000081525081600390816200009a919062000370565b508060049081620000ac919062000370565b50505033600660006101000a81548173ffffffffffffffffffffffffffffffffffffffff021916908373ffffffffffffffffffffffffffffffffffffffff16021790555062000457565b600081519050919050565b7f4e487b7100000000000000000000000000000000000000000000000000000000600052604160045260246000fd5b7f4e487b7100000000000000000000000000000000000000000000000000000000600052602260045260246000fd5b600060028204905060018216806200017857607f821691505b6020821081036200018e576200018d62000130565b5b50919050565b60008190508160005260206000209050919050565b60006020601f8301049050919050565b600082821b905092915050565b600060088302620001f87fffffffffffffffffffffffffffffffffffffffffffffffffffffffffffffffff82620001b9565b620002048683620001b9565b95508019841693508086168417925050509392505050565b6000819050919050565b6000819050919050565b6000620002516200024b62000245846200021c565b62000226565b6200021c565b9050919050565b6000819050919050565b6200026d8362000230565b620002856200027c8262000258565b848454620001c6565b825550505050565b600090565b6200029c6200028d565b620002a981848462000262565b505050565b5b81811015620002d157620002c560008262000292565b600181019050620002af565b5050565b601f8211156200032057620002ea8162000194565b620002f584620001a9565b8101602085101562000305578190505b6200031d6200031485620001a9565b830182620002ae565b50505b505050565b600082821c905092915050565b6000620003456000198460080262000325565b1980831691505092915050565b600062000360838362000332565b9150826002028217905092915050565b6200037b82620000f6565b67ffffffffffffffff81111562000397576200039662000101565b5b620003a382546200015f565b620003b0828285620002d5565b600060209050601f831160018114620003e85760008415620003d3578287015190505b620003df858262000352565b8655506200044f565b601f198416620003f88662000194565b60005b828110156200042257848901518255600182019150602085019450602081019050620003fb565b868310156200044257848901516200043e601f89168262000332565b8355505b6001600288020188555050505b505050505050565b612afe80620004676000396000f3fe608060405234801561001057600080fd5b506004361061014d5760003560e01c80635a3d5493116100c357806395d89b411161007c57806395d89b41146103a9578063a9059cbb146103c7578063c45a0155146103f7578063d21220a714610415578063dd62ed3e14610433578063fff6cae9146104635761014d565b80635a3d5493146102c05780635a76f25e146102de5780636a627842146102fc5780636d9a640a1461032c57806370a082311461034857806389afcb44146103785761014d565b806323b872dd1161011557806323b872dd146101fc57806326e795701461022c578063313ce5671461024a578063443cb4bc14610268578063485cc955146102865780635909c0d5146102a25761014d565b806306fdde03146101525780630902f1ac14610170578063095ea7b3146101905780630dfe1681146101c057806318160ddd146101de575b600080fd5b61015a61046d565b6040516101679190612382565b60405180910390f35b6101786104ff565b604051610187939291906123ec565b60405180910390f35b6101aa60048036038101906101a591906124bc565b61055c565b6040516101b79190612517565b60405180910390f35b6101c861057f565b6040516101d59190612541565b60405180910390f35b6101e66105a5565b6040516101f3919061256b565b60405180910390f35b61021660048036038101906102119190612586565b6105af565b6040516102239190612517565b60405180910390f35b6102346105de565b604051610241919061256b565b60405180910390f35b6102526105e4565b60405161025f91906125f5565b60405180910390f35b6102706105ed565b60405161027d9190612610565b60405180910390f35b6102a0600480360381019061029b919061262b565b61060d565b005b6102aa61071a565b6040516102b7919061256b565b60405180910390f35b6102c8610720565b6040516102d5919061256b565b60405180910390f35b6102e6610726565b6040516102f39190612610565b60405180910390f35b6103166004803603810190610311919061266b565b610746565b604051610323919061256b565b60405180910390f35b61034660048036038101906103419190612698565b610a90565b005b610362600480360381019061035d919061266b565b611011565b60405161036f919061256b565b60405180910390f35b610392600480360381019061038d919061266b565b611059565b6040516103a09291906126eb565b60405180910390f35b6103b161157a565b6040516103be9190612382565b60405180910390f35b6103e160048036038101906103dc91906124bc565b61160c565b6040516103ee9190612517565b60405180910390f35b6103ff61162f565b60405161040c9190612541565b60405180910390f35b61041d611655565b60405161042a9190612541565b60405180910390f35b61044d6004803603810190610448919061262b565b61167b565b60405161045a919061256b565b60405180910390f35b61046b611702565b005b60606003805461047c90612743565b80601f01602080910402602001604051908101604052809291908181526020018280546104a890612743565b80156104f55780601f106104ca576101008083540402835291602001916104f5565b820191906000526020600020905b8154815290600101906020018083116104d857829003601f168201915b5050505050905090565b6000806000600960009054906101000a90046dffffffffffffffffffffffffffff166009600e9054906101000a90046dffffffffffffffffffffffffffff166009601c9054906101000a900463ffffffff16925092509250909192565b600080610567611858565b9050610574818585611860565b600191505092915050565b600760009054906101000a900473ffffffffffffffffffffffffffffffffffffffff1681565b6000600254905090565b6000806105ba611858565b90506105c7858285611872565b6105d2858585611906565b60019150509392505050565b60055481565b60006012905090565b600960009054906101000a90046dffffffffffffffffffffffffffff1681565b600660009054906101000a900473ffffffffffffffffffffffffffffffffffffffff1673ffffffffffffffffffffffffffffffffffffffff163373ffffffffffffffffffffffffffffffffffffffff1614610694576040517f32cc723600000000000000000000000000000000000000000000000000000000815260040160405180910390fd5b81600760006101000a81548173ffffffffffffffffffffffffffffffffffffffff021916908373ffffffffffffffffffffffffffffffffffffffff16021790555080600860006101000a81548173ffffffffffffffffffffffffffffffffffffffff021916908373ffffffffffffffffffffffffffffffffffffffff1602179055505050565b600a5481565b600b5481565b6009600e9054906101000a90046dffffffffffffffffffffffffffff1681565b60006001600c5414610784576040517f8beb9d1600000000000000000000000000000000000000000000000000000000815260040160405180910390fd5b6002600c819055506000806107976104ff565b50915091506000600760009054906101000a900473ffffffffffffffffffffffffffffffffffffffff1673ffffffffffffffffffffffffffffffffffffffff166370a08231306040518263ffffffff1660e01b81526004016107f99190612541565b602060405180830381865afa158015610816573d6000803e3d6000fd5b505050506040513d601f19601f8201168201806040525081019061083a9190612789565b90506000600860009054906101000a900473ffffffffffffffffffffffffffffffffffffffff1673ffffffffffffffffffffffffffffffffffffffff166370a08231306040518263ffffffff1660e01b81526004016108999190612541565b602060405180830381865afa1580156108b6573d6000803e3d6000fd5b505050506040513d601f19601f820116820180604052508101906108da9190612789565b90506000846dffffffffffffffffffffffffffff16836108fa91906127e5565b90506000846dffffffffffffffffffffffffffff168361091a91906127e5565b905060006109266105a5565b0361097657600554610942828461093d9190612819565b6119fa565b61094c91906127e5565b96506109658860055489610960919061285b565b611af3565b61097188600554611b75565b6109dd565b6109da866dffffffffffffffffffffffffffff166109926105a5565b8461099d9190612819565b6109a791906128be565b866dffffffffffffffffffffffffffff166109c06105a5565b846109cb9190612819565b6109d591906128be565b611bf7565b96505b60008703610a17576040517f0428795f00000000000000000000000000000000000000000000000000000000815260040160405180910390fd5b610a218888611af3565b610a2d84848888611c10565b3373ffffffffffffffffffffffffffffffffffffffff167f4c209b5fc8ad50758f13e2e1088ba56a560dff690a1c6fef26394f4c03821c4f8383604051610a759291906126eb565b60405180910390a25050505050506001600c81905550919050565b6001600c5414610acc576040517f8beb9d1600000000000000000000000000000000000000000000000000000000815260040160405180910390fd5b6002600c81905550600083148015610ae45750600082145b15610b1b576040517fe9eb004d00000000000000000000000000000000000000000000000000000000815260040160405180910390fd5b600080610b266104ff565b5091509150816dffffffffffffffffffffffffffff16851180610b585750806dffffffffffffffffffffffffffff1684115b15610b8f576040517fabd6594f00000000000000000000000000000000000000000000000000000000815260040160405180910390fd5b6000600760009054906101000a900473ffffffffffffffffffffffffffffffffffffffff1690506000600860009054906101000a900473ffffffffffffffffffffffffffffffffffffffff1690508173ffffffffffffffffffffffffffffffffffffffff168573ffffffffffffffffffffffffffffffffffffffff161480610c4257508073ffffffffffffffffffffffffffffffffffffffff168573ffffffffffffffffffffffffffffffffffffffff16145b15610c79576040517f2417c1e200000000000000000000000000000000000000000000000000000000815260040160405180910390fd5b6000871115610d02578173ffffffffffffffffffffffffffffffffffffffff1663a9059cbb86896040518363ffffffff1660e01b8152600401610cbd9291906128ef565b6020604051808303816000875af1158015610cdc573d6000803e3d6000fd5b505050506040513d601f19601f82011682018060405250810190610d009190612944565b505b6000861115610d8b578073ffffffffffffffffffffffffffffffffffffffff1663a9059cbb86886040518363ffffffff1660e01b8152600401610d469291906128ef565b6020604051808303816000875af1158015610d65573d6000803e3d6000fd5b505050506040513d601f19601f82011682018060405250810190610d899190612944565b505b60008273ffffffffffffffffffffffffffffffffffffffff166370a08231306040518263ffffffff1660e01b8152600401610dc69190612541565b602060405180830381865afa158015610de3573d6000803e3d6000fd5b505050506040513d601f19601f82011682018060405250810190610e079190612789565b905060008273ffffffffffffffffffffffffffffffffffffffff166370a08231306040518263ffffffff1660e01b8152600401610e449190612541565b602060405180830381865afa158015610e61573d6000803e3d6000fd5b505050506040513d601f19601f82011682018060405250810190610e859190612789565b9050600089876dffffffffffffffffffffffffffff16610ea591906127e5565b8311610eb2576000610eda565b89876dffffffffffffffffffffffffffff16610ece91906127e5565b83610ed991906127e5565b5b9050600089876dffffffffffffffffffffffffffff16610efa91906127e5565b8311610f07576000610f2f565b89876dffffffffffffffffffffffffffff16610f2391906127e5565b83610f2e91906127e5565b5b9050600082148015610f415750600081145b15610f78576040517f41c5dd8800000000000000000000000000000000000000000000000000000000815260040160405180910390fd5b838389898082028385021015610f965763bd8bc36460005260206000fd5b50505050610fa684848a8a611c10565b3373ffffffffffffffffffffffffffffffffffffffff167fd78ad95fa46c994b6551d0da85fc275fe613ce37657fb8d5e3d130840159d82283838e8e8e604051610ff4959493929190612971565b60405180910390a250505050505050506001600c81905550505050565b60008060008373ffffffffffffffffffffffffffffffffffffffff1673ffffffffffffffffffffffffffffffffffffffff168152602001908152602001600020549050919050565b6000806001600c5414611098576040517f8beb9d1600000000000000000000000000000000000000000000000000000000815260040160405180910390fd5b6002600c819055506000806110ab6104ff565b50915091506000600760009054906101000a900473ffffffffffffffffffffffffffffffffffffffff1673ffffffffffffffffffffffffffffffffffffffff166370a08231306040518263ffffffff1660e01b815260040161110d9190612541565b602060405180830381865afa15801561112a573d6000803e3d6000fd5b505050506040513d601f19601f8201168201806040525081019061114e9190612789565b90506000600860009054906101000a900473ffffffffffffffffffffffffffffffffffffffff1673ffffffffffffffffffffffffffffffffffffffff166370a08231306040518263ffffffff1660e01b81526004016111ad9190612541565b602060405180830381865afa1580156111ca573d6000803e3d6000fd5b505050506040513d601f19601f820116820180604052508101906111ee9190612789565b905060006111fb30611011565b905060006112076105a5565b90508084836112169190612819565b61122091906128be565b975080838361122f9190612819565b61123991906128be565b965060008811158061124c575060008711155b15611283576040517fe83e6eda00000000000000000000000000000000000000000000000000000000815260040160405180910390fd5b61128d3083611b75565b600760009054906101000a900473ffffffffffffffffffffffffffffffffffffffff1673ffffffffffffffffffffffffffffffffffffffff1663a9059cbb8a8a6040518363ffffffff1660e01b81526004016112ea9291906128ef565b6020604051808303816000875af1158015611309573d6000803e3d6000fd5b505050506040513d601f19601f8201168201806040525081019061132d9190612944565b50600860009054906101000a900473ffffffffffffffffffffffffffffffffffffffff1673ffffffffffffffffffffffffffffffffffffffff1663a9059cbb8a896040518363ffffffff1660e01b815260040161138b9291906128ef565b6020604051808303816000875af11580156113aa573d6000803e3d6000fd5b505050506040513d601f19601f820116820180604052508101906113ce9190612944565b50600760009054906101000a900473ffffffffffffffffffffffffffffffffffffffff1673ffffffffffffffffffffffffffffffffffffffff166370a08231306040518263ffffffff1660e01b815260040161142a9190612541565b602060405180830381865afa158015611447573d6000803e3d6000fd5b505050506040513d601f19601f8201168201806040525081019061146b9190612789565b9350600860009054906101000a900473ffffffffffffffffffffffffffffffffffffffff1673ffffffffffffffffffffffffffffffffffffffff166370a08231306040518263ffffffff1660e01b81526004016114c89190612541565b602060405180830381865afa1580156114e5573d6000803e3d6000fd5b505050506040513d601f19601f820116820180604052508101906115099190612789565b925061151784848888611c10565b3373ffffffffffffffffffffffffffffffffffffffff167f49995e5dd6158cf69ad3e9777c46755a1a826a446c6416992167462dad033b2a898960405161155f9291906126eb565b60405180910390a25050505050506001600c81905550915091565b60606004805461158990612743565b80601f01602080910402602001604051908101604052809291908181526020018280546115b590612743565b80156116025780601f106115d757610100808354040283529160200191611602565b820191906000526020600020905b8154815290600101906020018083116115e557829003601f168201915b5050505050905090565b600080611617611858565b9050611624818585611906565b600191505092915050565b600660009054906101000a900473ffffffffffffffffffffffffffffffffffffffff1681565b600860009054906101000a900473ffffffffffffffffffffffffffffffffffffffff1681565b6000600160008473ffffffffffffffffffffffffffffffffffffffff1673ffffffffffffffffffffffffffffffffffffffff16815260200190815260200160002060008373ffffffffffffffffffffffffffffffffffffffff1673ffffffffffffffffffffffffffffffffffffffff16815260200190815260200160002054905092915050565b60008061170d6104ff565b5091509150611854600760009054906101000a900473ffffffffffffffffffffffffffffffffffffffff1673ffffffffffffffffffffffffffffffffffffffff166370a08231306040518263ffffffff1660e01b81526004016117709190612541565b602060405180830381865afa15801561178d573d6000803e3d6000fd5b505050506040513d601f19601f820116820180604052508101906117b19190612789565b600860009054906101000a900473ffffffffffffffffffffffffffffffffffffffff1673ffffffffffffffffffffffffffffffffffffffff166370a08231306040518263ffffffff1660e01b815260040161180c9190612541565b602060405180830381865afa158015611829573d6000803e3d6000fd5b505050506040513d601f19601f8201168201806040525081019061184d9190612789565b8484611c10565b5050565b600033905090565b61186d8383836001611e15565b505050565b600061187e848461167b565b90507fffffffffffffffffffffffffffffffffffffffffffffffffffffffffffffffff811461190057818110156118f0578281836040517ffb8f41b20000000000000000000000000000000000000000000000000000000081526004016118e7939291906129c4565b60405180910390fd5b6118ff84848484036000611e15565b5b50505050565b600073ffffffffffffffffffffffffffffffffffffffff168373ffffffffffffffffffffffffffffffffffffffff16036119785760006040517f96c6fd1e00000000000000000000000000000000000000000000000000000000815260040161196f9190612541565b60405180910390fd5b600073ffffffffffffffffffffffffffffffffffffffff168273ffffffffffffffffffffffffffffffffffffffff16036119ea5760006040517fec442f050000000000000000000000000000000000000000000000000000000081526004016119e19190612541565b60405180910390fd5b6119f5838383611fec565b505050565b6000808203611a0c5760009050611aee565b60006001611a1984612211565b901c6001901b90506001818481611a3357611a3261288f565b5b048201901c90506001818481611a4c57611a4b61288f565b5b048201901c90506001818481611a6557611a6461288f565b5b048201901c90506001818481611a7e57611a7d61288f565b5b048201901c90506001818481611a9757611a9661288f565b5b048201901c90506001818481611ab057611aaf61288f565b5b048201901c90506001818481611ac957611ac861288f565b5b048201901c9050611aea81828581611ae457611ae361288f565b5b04611bf7565b9150505b919050565b600073ffffffffffffffffffffffffffffffffffffffff168273ffffffffffffffffffffffffffffffffffffffff1603611b655760006040517fec442f05000000000000000000000000000000000000000000000000000000008152600401611b5c9190612541565b60405180910390fd5b611b7160008383611fec565b5050565b600073ffffffffffffffffffffffffffffffffffffffff168273ffffffffffffffffffffffffffffffffffffffff1603611be75760006040517f96c6fd1e000000000000000000000000000000000000000000000000000000008152600401611bde9190612541565b60405180910390fd5b611bf382600083611fec565b5050565b6000818310611c065781611c08565b825b905092915050565b600064010000000042611c2391906129fb565b905060006009601c9054906101000a900463ffffffff1682611c459190612a2c565b905060008163ffffffff16118015611c6e57506000846dffffffffffffffffffffffffffff1614155b8015611c8b57506000836dffffffffffffffffffffffffffff1614155b15611d11576000846dffffffffffffffffffffffffffff166070856dffffffffffffffffffffffffffff16901b611cc291906128be565b90506000846dffffffffffffffffffffffffffff166070876dffffffffffffffffffffffffffff16901b611cf691906128be565b9050600a600b84840282540182558483028154018155505050505b85600960006101000a8154816dffffffffffffffffffffffffffff02191690836dffffffffffffffffffffffffffff160217905550846009600e6101000a8154816dffffffffffffffffffffffffffff02191690836dffffffffffffffffffffffffffff160217905550816009601c6101000a81548163ffffffff021916908363ffffffff1602179055507fcf2aa50876cdfbb541206f89af0ee78d44a2abf8d328e37fa4917f982149848a600960009054906101000a90046dffffffffffffffffffffffffffff166009600e9054906101000a90046dffffffffffffffffffffffffffff16604051611e05929190612a9f565b60405180910390a1505050505050565b600073ffffffffffffffffffffffffffffffffffffffff168473ffffffffffffffffffffffffffffffffffffffff1603611e875760006040517fe602df05000000000000000000000000000000000000000000000000000000008152600401611e7e9190612541565b60405180910390fd5b600073ffffffffffffffffffffffffffffffffffffffff168373ffffffffffffffffffffffffffffffffffffffff1603611ef95760006040517f94280d62000000000000000000000000000000000000000000000000000000008152600401611ef09190612541565b60405180910390fd5b81600160008673ffffffffffffffffffffffffffffffffffffffff1673ffffffffffffffffffffffffffffffffffffffff16815260200190815260200160002060008573ffffffffffffffffffffffffffffffffffffffff1673ffffffffffffffffffffffffffffffffffffffff168152602001908152602001600020819055508015611fe6578273ffffffffffffffffffffffffffffffffffffffff168473ffffffffffffffffffffffffffffffffffffffff167f8c5be1e5ebec7d5bd14f71427d1e84f3dd0314c0f7b2291e5b200ac8c7c3b92584604051611fdd919061256b565b60405180910390a35b50505050565b600073ffffffffffffffffffffffffffffffffffffffff168373ffffffffffffffffffffffffffffffffffffffff160361203e578060026000828254612032919061285b565b92505081905550612111565b60008060008573ffffffffffffffffffffffffffffffffffffffff1673ffffffffffffffffffffffffffffffffffffffff168152602001908152602001600020549050818110156120ca578381836040517fe450d38c0000000000000000000000000000000000000000000000000000000081526004016120c1939291906129c4565b60405180910390fd5b8181036000808673ffffffffffffffffffffffffffffffffffffffff1673ffffffffffffffffffffffffffffffffffffffff16815260200190815260200160002081905550505b600073ffffffffffffffffffffffffffffffffffffffff168273ffffffffffffffffffffffffffffffffffffffff160361215a57806002600082825403925050819055506121a7565b806000808473ffffffffffffffffffffffffffffffffffffffff1673ffffffffffffffffffffffffffffffffffffffff168152602001908152602001600020600082825401925050819055505b8173ffffffffffffffffffffffffffffffffffffffff168373ffffffffffffffffffffffffffffffffffffffff167fddf252ad1be2c89b69c2b068fc378daa952ba7f163c4a11628f55a4df523b3ef83604051612204919061256b565b60405180910390a3505050565b600080600090506000608084901c111561223357608083901c92506080810190505b6000604084901c111561224e57604083901c92506040810190505b6000602084901c111561226957602083901c92506020810190505b6000601084901c111561228457601083901c92506010810190505b6000600884901c111561229f57600883901c92506008810190505b6000600484901c11156122ba57600483901c92506004810190505b6000600284901c11156122d557600283901c92506002810190505b6000600184901c11156122e9576001810190505b80915050919050565b600081519050919050565b600082825260208201905092915050565b60005b8381101561232c578082015181840152602081019050612311565b60008484015250505050565b6000601f19601f8301169050919050565b6000612354826122f2565b61235e81856122fd565b935061236e81856020860161230e565b61237781612338565b840191505092915050565b6000602082019050818103600083015261239c8184612349565b905092915050565b60006dffffffffffffffffffffffffffff82169050919050565b6123c7816123a4565b82525050565b600063ffffffff82169050919050565b6123e6816123cd565b82525050565b600060608201905061240160008301866123be565b61240e60208301856123be565b61241b60408301846123dd565b949350505050565b600080fd5b600073ffffffffffffffffffffffffffffffffffffffff82169050919050565b600061245382612428565b9050919050565b61246381612448565b811461246e57600080fd5b50565b6000813590506124808161245a565b92915050565b6000819050919050565b61249981612486565b81146124a457600080fd5b50565b6000813590506124b681612490565b92915050565b600080604083850312156124d3576124d2612423565b5b60006124e185828601612471565b92505060206124f2858286016124a7565b9150509250929050565b60008115159050919050565b612511816124fc565b82525050565b600060208201905061252c6000830184612508565b92915050565b61253b81612448565b82525050565b60006020820190506125566000830184612532565b92915050565b61256581612486565b82525050565b6000602082019050612580600083018461255c565b92915050565b60008060006060848603121561259f5761259e612423565b5b60006125ad86828701612471565b93505060206125be86828701612471565b92505060406125cf868287016124a7565b9150509250925092565b600060ff82169050919050565b6125ef816125d9565b82525050565b600060208201905061260a60008301846125e6565b92915050565b600060208201905061262560008301846123be565b92915050565b6000806040838503121561264257612641612423565b5b600061265085828601612471565b925050602061266185828601612471565b9150509250929050565b60006020828403121561268157612680612423565b5b600061268f84828501612471565b91505092915050565b6000806000606084860312156126b1576126b0612423565b5b60006126bf868287016124a7565b93505060206126d0868287016124a7565b92505060406126e186828701612471565b9150509250925092565b6000604082019050612700600083018561255c565b61270d602083018461255c565b9392505050565b7f4e487b7100000000000000000000000000000000000000000000000000000000600052602260045260246000fd5b6000600282049050600182168061275b57607f821691505b60208210810361276e5761276d612714565b5b50919050565b60008151905061278381612490565b92915050565b60006020828403121561279f5761279e612423565b5b60006127ad84828501612774565b91505092915050565b7f4e487b7100000000000000000000000000000000000000000000000000000000600052601160045260246000fd5b60006127f082612486565b91506127fb83612486565b9250828203905081811115612813576128126127b6565b5b92915050565b600061282482612486565b915061282f83612486565b925082820261283d81612486565b91508282048414831517612854576128536127b6565b5b5092915050565b600061286682612486565b915061287183612486565b9250828201905080821115612889576128886127b6565b5b92915050565b7f4e487b7100000000000000000000000000000000000000000000000000000000600052601260045260246000fd5b60006128c982612486565b91506128d483612486565b9250826128e4576128e361288f565b5b828204905092915050565b60006040820190506129046000830185612532565b612911602083018461255c565b9392505050565b612921816124fc565b811461292c57600080fd5b50565b60008151905061293e81612918565b92915050565b60006020828403121561295a57612959612423565b5b60006129688482850161292f565b91505092915050565b600060a082019050612986600083018861255c565b612993602083018761255c565b6129a0604083018661255c565b6129ad606083018561255c565b6129ba6080830184612532565b9695505050505050565b60006060820190506129d96000830186612532565b6129e6602083018561255c565b6129f3604083018461255c565b949350505050565b6000612a0682612486565b9150612a1183612486565b925082612a2157612a2061288f565b5b828206905092915050565b6000612a37826123cd565b9150612a42836123cd565b9250828203905063ffffffff811115612a5e57612a5d6127b6565b5b92915050565b6000819050919050565b6000612a89612a84612a7f846123a4565b612a64565b612486565b9050919050565b612a9981612a6e565b82525050565b6000604082019050612ab46000830185612a90565b612ac16020830184612a90565b939250505056fea26469706673582212202cbd9cba2220e3b1697e90c1ac17052616784212d6dfe8f5d0c542267905c39d64736f6c63430008180033",
  "linkReferences": {},
  "deployedLinkReferences": {}
}